{
  "contractName": "samplecontract",
  "abi": [
    {
      "inputs": [
        {
          "internalType": "bytes32",
          "name": "initialHash",
          "type": "bytes32"
        }
      ],
      "stateMutability": "nonpayable",
      "type": "constructor"
    },
    {
      "inputs": [],
      "name": "storedHash",
      "outputs": [
        {
          "internalType": "bytes32",
          "name": "",
          "type": "bytes32"
        }
      ],
      "stateMutability": "view",
      "type": "function",
      "constant": true
    },
    {
      "inputs": [
        {
          "internalType": "bytes32",
          "name": "newHash",
          "type": "bytes32"
        }
      ],
      "name": "setHash",
      "outputs": [],
      "stateMutability": "nonpayable",
      "type": "function"
    },
    {
      "inputs": [],
      "name": "getHash",
      "outputs": [
        {
          "internalType": "bytes32",
          "name": "",
          "type": "bytes32"
        }
      ],
      "stateMutability": "view",
      "type": "function",
      "constant": true
    }
  ],
  "bytecode": "0x608060405234801561000f575f80fd5b5060405161021d38038061021d83398181016040528101906100319190610074565b805f819055505061009f565b5f80fd5b5f819050919050565b61005381610041565b811461005d575f80fd5b50565b5f8151905061006e8161004a565b92915050565b5f602082840312156100895761008861003d565b5b5f61009684828501610060565b91505092915050565b610171806100ac5f395ff3fe608060405234801561000f575f80fd5b506004361061003f575f3560e01c80630c4c428514610043578063b0da51951461005f578063d13319c41461007d575b5f80fd5b61005d600480360381019061005891906100e8565b61009b565b005b6100676100a4565b6040516100749190610122565b60405180910390f35b6100856100a9565b6040516100929190610122565b60405180910390f35b805f8190555050565b5f5481565b5f8054905090565b5f80fd5b5f819050919050565b6100c7816100b5565b81146100d1575f80fd5b50565b5f813590506100e2816100be565b92915050565b5f602082840312156100fd576100fc6100b1565b5b5f61010a848285016100d4565b91505092915050565b61011c816100b5565b82525050565b5f6020820190506101355f830184610113565b9291505056fea2646970667358221220f8b8f41a6c1d517194033cd9146253470cc9778e1c8909e29b80cb384018c67764736f6c63430008150033",
  "immutableReferences": {},
  "source": "// SPDX-License-Identifier: MIT\r\npragma solidity ^0.8.0;\r\n\r\ncontract samplecontract {\r\n    bytes32 public storedHash;\r\n\r\n    //   .\r\n    constructor(bytes32 initialHash) {\r\n        storedHash = initialHash;\r\n    }\r\n\r\n    //     .\r\n    function setHash(bytes32 newHash) public {\r\n        storedHash = newHash;\r\n    }\r\n\r\n    //   .\r\n    function getHash() public view returns (bytes32) {\r\n        return storedHash;\r\n    }\r\n}\r\n",
  "sourcePath": "C:\\Project\\Polygon\\polygon-project\\contracts\\samplecontract.sol",
  "compiler": {
    "name": "solc",
    "version": "0.8.21+commit.d9974bed.Emscripten.clang"
  },
  "schemaVersion": "3.4.16",
  "updatedAt": "2024-04-19T07:13:21.926Z",
  "networkType": "ethereum",
  "devdoc": {
    "kind": "dev",
    "methods": {},
    "version": 1
  },
  "userdoc": {
    "kind": "user",
    "methods": {},
    "version": 1
  }
}